:100000000C942A000C9447000C9447000C94470071
:100010000C9447000C9447000C9447000C94470044
:100020000C9447000C9447000C9458010C94470022
:100030000C9447000C9447000C9447000C94470024
:100040000C94A5010C9447000C9447000C944700B5
:100050000C94470011241FBECFE5D8E0DEBFCDBF12
:1000600010E0A0E6B0E0EEE5F8E102C005900D92E8
:10007000AC3EB107D9F725E0ACEEB0E001C01D926F
:10008000A535B207E1F70E949C000C942D0C0C944E
:100090000000CF93DF930E941E09C82F811147C033
:1000A00088E080932605E5E2F5E080818E7F8083FD
:1000B00060E070E0CB010E946B0A42E151E060E039
:1000C00072E085E291E00E947D0942E151E060E04A
:1000D00072E085E293E00E947D0983B7826083BF6E
:1000E000D1E0909124019923C9F0209111012D278D
:1000F00030E0C901982F8827990F42E151E060E074
:1001000072E08B5D9E4F0E947D092091120130911B
:1001100013012115324040F0109224019091F0001B
:100120009130F9F61092F00083B78D7F83BF8C2F4A
:1001300090E0DF91CF91089581B3806381BB8FE020
:1001400088BBB99A87B3806B87BBC49A8DB1806531
:100150008DB9709A81EA8FBD81E08EBD88E083BF42
:1001600082E089BF78948CE28CBF86B1876086B9C3
:1001700087B1806C87B9339A379AC1E089E295E0FC
:100180000E94EB078111FACF69EC70E084E191E005
:100190000E949E0B8111F2CF80916000813041F46A
:1001A00081E990E00E944900892B41F7109260009C
:1001B0008091F5008130C1F5C093F400C093F30045
:1001C000E091F100F0E0EE0FFF1FEE59FF4F80814C
:1001D00091818093610080916100813021F48DE9EB
:1001E00090E00E94490080916100823021F487EA0A
:1001F00090E00E94490080916100833021F482EBFD
:1002000090E00E9449001092F5001092F4001092C4
:10021000F3008091F1008F5F8093F1008091F100F5
:10022000893011F41092F1008091F5008230C1F50F
:10023000C093F4001092F300E091F200F0E0EE0FB2
:10024000FF1FE958FF4F8081918180937600809154
:100250007600813021F48DEB90E00E94490080917E
:100260007600823021F48AEC90E00E94490080916F
:100270007600833021F487ED90E00E9449001092CF
:10028000F5001092F4008091F2008F5F8093F200ED
:100290008091F200893009F077CF1092F20074CF8C
:1002A00084EE90E00E944900892B09F46DCF66CF5F
:1002B0001F920F920FB60F9211242F933F938F939B
:1002C0009F93EF93FF93E09111018091EE00909145
:1002D000EF009C012F5F3F4F3093EF002093EE0023
:1002E000F0E0FE2FEE27FF0F8E0F9F1FFC01EB5D4E
:1002F000FE4F80818093ED008093EC0090E09BBDE9
:100300008ABD8091EC0090E099BD88BD8091EE009F
:100310009091EF008115924060F01092EF001092E2
:10032000EE0081E080932401909111018927809350
:100330001101369AFF91EF919F918F913F912F91EB
:100340000F900FBE0F901F9018951F920F920FB62F
:100350000F9211242F938F939F9384B125B190E036
:10036000922B27B1213C59F0223C81F0203CA1F492
:100370009093900080938F0081EC87B90DC090938B
:100380008E0080938D0082EC87B906C090938C001C
:1003900080938B0080EC87B980918F0090919000C2
:1003A0008632924040F480918F0090919000853F7A
:1003B000914008F046C080918D0090918E00863269
:1003C000924038F480918D0090918E00853F91404D
:1003D000C0F580918B0090918C008632924038F469
:1003E00080918B0090918C00853F914050F58091D9
:1003F0008F00909190008C35934038F480918F005D
:10040000909190008B329340E0F480918D00909118
:100410008E008C35934038F480918D0090918E0041
:100420008B32934070F480918B0090918C008C35CE
:100430009340A0F480918B0090918C008B3293407C
:1004400068F08091F400813049F08091F3008130B0
:1004500029F081E08093F5008093F00080918F0077
:1004600090919000843F914018F180918D0090917F
:100470008E00843F9140E0F080918B0090918C0041
:10048000843F9140A8F080918F00909190008D352D
:10049000934070F480918D0090918E008D35934043
:1004A00038F480918B0090918C008D35934070F0E2
:1004B0008091F400813021F48091F300813031F497
:1004C00082E08093F50081E08093F0009F918F910E
:1004D0002F910F900FBE0F901F9018958FEF8FB92F
:1004E000779BFECF8FB10895C49A0E946E02089543
:1004F000CF92DF92EF92FF92CF93C82F6A017B01D8
:1005000088234CF440E050E0BA0187E70E9478026B
:100510008230A0F5CF77C49A0E946E02C4980E94E0
:100520006E02CFB9779BFECF4F2D552766277727D1
:100530004FB9779BFECFA701662777274FB9779BE7
:10054000FECF77276F2D5E2D4D2D4FB9779BFECFB8
:10055000CFB8779BFECFC03421F0C83421F081E0C2
:1005600003C085E901C087E88FB9779BFECFCAE059
:100570000E946E02882314F4C150D1F7CF91FF90EE
:10058000EF90DF90CF900895CF92DF92EF92FF929D
:100590000F931F93CF93DF937C01E9018091F800C3
:1005A00083FD09C0032E39E0440F551F661F771FD6
:1005B0003A95D1F7302D81E50E947802811136C03D
:1005C0000F2EF0E3CF2EF5E7DF2EF02D0E946E0206
:1005D0008F3F39F481E0C81AD108C114D104B1F7B2
:1005E00027C08E3F39F582E092E06C01C01AD10A33
:1005F000CC1ADD0A209729F00E946E0221972097DD
:10060000D9F7E114F10449F0E7010E946E028993E1
:100610000150110901151105C1F70E946E0281E018
:10062000C81AD108C114D104C1F706C0C1E005C081
:10063000C1E003C0C1E001C0C0E00E9474028C2F81
:10064000DF91CF911F910F91FF90EF90DF90CF90AE
:1006500008951F93CF93DF93009731F14115510512
:1006600009F46FC02091F6003091F700232B09F4B4
:100670006AC0FC0141505109480F591F80818FB950
:10068000779BFECF2091F6003091F7002150310981
:100690003093F7002093F600E417F50709F455C0EE
:1006A0003196232B59F753C041155105610571054A
:1006B00011F18091F80083FD09C0032E39E0440F49
:1006C000551F661F771F3A95D1F7302D88E50E9498
:1006D000780281113EC08FEF8FB9779BFECF8EEFEE
:1006E0008FB9779BFECF80E092E09093F7008093E4
:1006F000F60010E02FC02091F6003091F700C901FC
:1007000001962E3F3F4F19F01FB80197E8F7779BEE
:10071000FECF0E946E028F71853079F4C8EEDDEF56
:1007200001C021970E946E028F3F11F02097C9F7F8
:1007300011E0CD2B19F010E001C011E00E9474020D
:1007400009C010E007C010E005C010E003C010E0D1
:1007500001C011E0812FDF91CF911F910895EF9299
:10076000FF920F931F93CF93DF9300D000D0CDB7AC
:10077000DEB7C499B6C040E050E0BA0180E090E036
:100780000E942903AEC00E946E021150E1F740E0C2
:1007900050E0BA0180E40E947802813009F083C001
:1007A0004AEA51E060E070E088E40E94780281301B
:1007B00009F047C07E0185E0E80EF11C8E010F5F55
:1007C0001F4F0E946E02F80181938F01EE15FF0505
:1007D000C1F78B81813009F068C08C818A3A09F0B9
:1007E00066C000EE1EE206C0015011090115110598
:1007F00009F45FC040E050E060E070E489EE0E94E0
:1008000078028111F1CF012B09F455C040E050E08E
:10081000BA018AE70E94780281114FC08E010F5FF2
:100820001F4F0E946E02F80181938F01EE15FF05A4
:10083000C1F7898186FF43C00F2EFCE0FF2EF02D0B
:1008400047C040E050E0BA0189EE0E947802823051
:1008500040F46894FF24F1F80F2EF9EEEF2EF02DFE
:1008600006C0FF24F3940F2EF1E4EF2EF02D08EADA
:1008700011E605C0015011090115110521F140E0F3
:1008800050E0BA018E2D0E9478028111F3CF012B26
:10089000E1F040E052E060E070E080E50E94780224
:1008A000811115C015C0F12C13C0F12C11C0F12C11
:1008B0000FC0F12C0DC0F12C0BC0F12C09C06894B5
:1008C000FF24F2F805C0F12C03C0F12C01C0F12C7B
:1008D000F092F8000E94740281E0FF2021F080E095
:1008E00002C014E650CF0F900F900F900F90DF9141
:1008F000CF911F910F91FF90EF9008950F931F9349
:10090000E091F900F091FA009B01AC01225031090D
:100910004109510980859185A285B3850297A10976
:10092000B109281739074A075B0768F4A181B0E0CD
:100930000E94130C0489158926893789600F711F5D
:10094000821F931F03C060E070E0CB011F910F91E5
:1009500008950F931F93CF93DF93EC01E091F9007B
:10096000F091FA00198218826C817D818E819F81BD
:10097000613071058105910559F100851185228548
:100980003385601771078207930720F5611571059C
:100990008105910509F58081833019F56089718998
:1009A00082899389688779878A879B876115710512
:1009B0008105910519F00E947E0404C06089718947
:1009C000828993896C877D878E879F8780E00EC0A0
:1009D00081E00CC081E00AC0688779878A879B879D
:1009E000EACF188619861A861B86E8CFDF91CF9149
:1009F0001F910F910895CF92DF92EF92FF920F9384
:100A00001F93CF93DF93EC016A017B0102E010E0BA
:100A10002EEF31E00E94C402811126C088819981A5
:100A200085359A4A19F526E330E0B701A601CE01D3
:100A30000E94C402811105C0888199818634914445
:100A4000B9F002E010E022E530E0B701A601CE01E6
:100A50000E94C40281110EC081E0288139812634B0
:100A6000314449F480E007C083E005C082E003C060
:100A700080E001C081E0DF91CF911F910F91FF9045
:100A8000EF90DF90CF9008954F925F926F927F9298
:100A9000AF92BF92CF92DF92EF92FF920F931F938C
:100AA000CF93DF9300D000D0CDB7DEB76B017C01D0
:100AB000A090F900B090FA0082E0C816D104E104D9
:100AC000F10408F4B8C0F50180859185A285B3854D
:100AD000C816D906EA06FB0608F0B2C0808182304B
:100AE00009F461C0833009F47CC0813009F0ADC0E5
:100AF0002601569447944C0C5D1C92013170452C94
:100B0000552446942F3FF1E03F0791F0F5014485CD
:100B1000558566857785440D551D611D711D02E063
:100B200010E0CE0101960E94C402882359F192C0C0
:100B3000612C712CF5014485558566857785440DBA
:100B4000551D661D771D01E010E02FEF31E0CE014D
:100B500001960E94C402811182C0F5014485558529
:100B6000668577854F5F5F4F6F4F7F4F440D551DF3
:100B7000661D771D20E030E0CE0102960E94C4027F
:100B8000811172C069817A81C0FE09C07295629537
:100B90006F7067277F70672780E090E073C07F7079
:100BA00080E090E06FC096013327220F331F772734
:100BB0006F2D5E2D4D2DF50184859585A685B78514
:100BC000480F591F6A1F7B1F02E010E0CE010196FB
:100BD0000E94C40281114DC069817A8180E090E059
:100BE00051C096012F773327220F331F220F331F57
:100BF000B701A601689416F87695679557954795BD
:100C00001694D1F7F50184859585A685B785480F9B
:100C1000591F6A1F7B1F04E010E0CE0101960E945D
:100C2000C40281112BC089819A81AB81BC81BC0136
:100C3000CD019F7027C061E070E080E090E022C0AD
:100C400061E070E080E090E01DC061E070E080E075
:100C500090E018C061E070E080E090E013C061E0D7
:100C600070E080E090E00EC061E070E080E090E035
:100C700009C061E070E080E090E004C061E070E0F5
:100C800080E090E00F900F900F900F90DF91CF9148
:100C90001F910F91FF90EF90DF90CF90BF90AF909A
:100CA0007F906F905F904F900895CF92DF92EF9278
:100CB000FF920F931F93CF93DF93EC01E090F90025
:100CC000F090FA00088119810F5F1F4F011511057F
:100CD00009F457C04C855D856E857F8541155105AA
:100CE0006105710509F44FC0C8018F709927892BE0
:100CF00009F043C04F5F5F4F6F4F7F4F4C875D8759
:100D00006E877F87688579858A859B8561157105E2
:100D10008105910539F4F701848195810817190738
:100D2000A0F52BC0F701218130E021503109A80145
:100D3000529542954F7045275F70452724233523F0
:100D4000232BD9F40E944405623071058105910579
:100D5000F0F0F701C084D184E284F3846C157D0542
:100D60008E059F05B0F4688779878A879B870E94E4
:100D70007E046C877D878E879F871983088380E038
:100D800009C083E007C083E005C083E003C081E0C1
:100D900001C083E0DF91CF911F910F91FF90EF9001
:100DA000DF90CF9008952F923F924F925F926F9273
:100DB0007F928F929F92AF92BF92CF92DF92EF92EB
:100DC000FF920F931F93CF93DF937C015B01DB01B5
:100DD0008C91803241F4FB013196BFEFAB1ABB0A14
:100DE00081918032D1F38F3219F4EFEFAE1ABE0A3F
:100DF000D70114961D921D921D921C921797F50112
:100E00008081813268F4C7010E94A904582FE091C3
:100E1000F900F091FA000680F781E02D1082C7C03A
:100E20006894992495F8612C6894442443F8342CF0
:100E30000F2EFBE02F2EF02D55245394852C762C6D
:100E4000F701A281B381FD01CD010B969192E817C4
:100E5000F907E1F7962D862D342D01C0822F21E070
:100E6000280FF501E80FF11D8081813290F08F325B
:100E700081F08E3209F48DC0931758F44FE9480F72
:100E80004A3108F48052FD01E90FF11D80839F5F14
:100E9000E5CFA20EB11C952D813208F0962D1B9640
:100EA0009C93C7010E94A904582F81117EC0E09134
:100EB000F900F091FA00C680D780E6012B96D701A1
:100EC0002D913C9111972F703327220F331F2295BC
:100ED0003295307F3227207F32271C964D915D91CD
:100EE0006D917C911F9700E210E0C6010E94C40240
:100EF000582D811101C0572D511157C0F601808125
:100F00008823C9F0838583FD0FC0D70112962D91E8
:100F10003C911397D90104C0EC17FD0709F43FC0B9
:100F200041919D914917C1F3C7010E945506582F61
:100F3000882329F23AC0D7011296ED91FC911397BC
:100F40008385882311F11FC0E091F900F091FA0028
:100F50000680F781E02D838584FF19C084899589F7
:100F6000A0E0B0E0DC0199278827428D538D60E036
:100F700070E0842B952BA62BB72BF70184839583E8
:100F8000A683B7835DCF53E012C054E010C054E095
:100F90000EC0383009F07DCF932D322D5FCFD901AF
:100FA0001B968C91882381F202C0533021F2852F49
:100FB000DF91CF911F910F91FF90EF90DF90CF9035
:100FC000BF90AF909F908F907F906F905F904F9069
:100FD0003F902F9008954F925F926F927F929F92D1
:100FE000AF92BF92CF92DF92EF92FF920F931F9337
:100FF000CF93DF93CDB7DEB7A8970FB6F894DEBFD7
:101000000FBECDBF5C011092FA001092F90000975C
:1010100009F4ECC00E94AF0380FDEAC040E050E05C
:10102000BA01CE0101960E94FB048130E1F400E197
:1010300010E02EEB31E040E050E0BA01CE01019625
:101040000E94C4028111D6C08D81882309F4D4C0C6
:1010500049845A846B847C84B301A201CE01019639
:101060000E94FB0403C0412C512C3201833009F44F
:10107000C5C08111C5C004E210E02DE030E0B3012D
:10108000A201CE0101960E94C4028111BBC02A8533
:101090003B8540E050E0211531054105510521F423
:1010A000288D398D4A8D5B8DAC81B0E00E94130C88
:1010B0006B017C018A819B818C0120E030E0400E35
:1010C000511E621E731ED5011C964D925D926D924B
:1010D0007C921F97998011969C921197ED81FE81C9
:1010E0001596FC93EE9314976F817885CB01A0E061
:1010F000B0E00097A105B10521F48C899D89AE89E6
:10110000BF89F295E295EF70EF27FF70EF27AF01EF
:1011100060E070E04DA35EA36FA378A7801B910BE6
:10112000A20BB30B8C199D09AE09BF09BC01CD01FF
:101130002DA13EA14FA158A5621B730B840B950BEB
:10114000292D30E040E050E00E94F10BBA01A901E6
:101150004E5F5F4F6F4F7F4FD50118964D935D9354
:101160006D937C931B97473FBFE05B07610571055B
:1011700010F481E001C082E0473F5F4F61057105D7
:1011800008F042C0D5018C93833051F488A199A115
:10119000AAA1BBA1F501808B918BA28BB38B0BC055
:1011A000D701C601840D951DA61DB71DF501808BC5
:1011B000918BA28BB38B2DA13EA14FA158A5420EBE
:1011C000531E641E751EC40CD51CE61CF71CD501ED
:1011D0005496CD92DD92ED92FC92579712961C9206
:1011E000B092FA00A092F90080E012C080E010C036
:1011F00082E00EC081E00CC087E00AC081E008C038
:1012000087E006C081E004C083E0F5018083BECFA3
:10121000A8960FB6F894DEBF0FBECDBFDF91CF9179
:101220001F910F91FF90EF90DF90CF90BF90AF9004
:101230009F907F906F905F904F9008950F931F93B2
:10124000CF93DF93CDB7DEB7EC970FB6F894DEBF40
:101250000FBECDBF0091F9001091FA0001151105E4
:10126000E1F1F80112829E01235E3F4F378326830E
:101270002C5031093C832B83BC01CE0101960E9486
:10128000D30681112FC08D8D882349F188A584FD57
:1012900028C089A99AA9A0E0B0E0DC019927882795
:1012A0004FA958AD60E070E0842B952BA62BB72B8F
:1012B000F80180A391A3A2A3B3A389AD9AADABAD6E
:1012C000BCAD848F958FA68FB78F108E118E128E26
:1012D000138E81E0828380E005C086E003C083E056
:1012E00001C083E0EC960FB6F894DEBF0FBECDBF11
:1012F000DF91CF911F910F9108952F923F924F92BE
:101300005F926F927F928F929F92AF92BF92CF9295
:10131000DF92EF92FF920F931F93CF93DF932C01F5
:101320006B013A01C091F900D091FA00FA011182E3
:101330001082209709F4B5C08A8180FFB4C08C8DDB
:101340009D8DAE8DBF8D488D598D6A8D7B8D841B93
:10135000950BA60BB70BA60160E070E0841795070C
:10136000A607B70708F46C01C114D10409F49DC0A5
:101370005201812C6894992491F8312C212CE88C0D
:10138000F98C0A8D1B8DD801C7019170AA27BB2744
:10139000892B8A2B8B2B09F049C0298130E040E052
:1013A00050E0C801B701052E59E0969587957795CD
:1013B00067955A95D1F7502D0E94F10B672B682B3A
:1013C000692BD1F4EF28E02AE12A29F468A179A158
:1013D0008AA19BA106C06CA17DA18EA19FA10E94A4
:1013E0004405623071058105910508F457C06CA36E
:1013F0007DA38EA39FA31B826CA17DA18EA19FA123
:101400000E947E04611571058105910509F446C0AD
:101410002B8131E0320F3B83DC01CB01820F911D28
:10142000A11DB11D88A799A7AAA7BBA7288D398D93
:101430003170C401821B930B76018C159D0508F455
:101440007C0148A559A56AA57BA54114510419F44E
:10145000832D922D02C08A2D9B2D87010E94C402EC
:1014600081111CC0888D998DAA8DBB8D8E0D9F1DFD
:10147000A11DB11D888F998FAA8FBB8FAE0CBF1C89
:10148000CE18DF08F30180819181E80EF91EF18208
:10149000E082C114D10409F072CF09C01A8281E040
:1014A00007C086E005C085E003C080E001C080E0A1
:1014B000DF91CF911F910F91FF90EF90DF90CF9030
:1014C000BF90AF909F908F907F906F905F904F9064
:1014D0003F902F9008952F923F924F925F926F927C
:1014E0007F928F929F92AF92BF92CF92DF92EF92B4
:1014F000FF920F931F93CF93DF9300D000D0CDB70F
:10150000DEB7362FE72F2090F9003090FA00211433
:10151000310409F4F7C0D10112962C91129720FFE3
:10152000F3C05C964D915D916D917C915F97C32E58
:10153000DE2EE82EF92E4C155D056E057F0510F4A4
:101540006A017B01F101808D918DA28DB38D108E8A
:10155000118E128E138EC114D104E104F10409F42A
:10156000D5C08180912CA12CB12C072E79E0880C5C
:10157000991CAA1CBB1C7A95D1F7702D0097A10568
:10158000B10509F441C02C013D01F1E04F1A5108A9
:1015900061087108C701B60161507109810991099B
:1015A000A50194010E94F10B29833A834B835C834C
:1015B000C301B201A50194010E94F10B89819A81B6
:1015C000AB81BC8182179307A407B507E8F0882791
:1015D0009927DC0188199909AA09BB0948225922CF
:1015E0006A227B22D10158964D925D926D927C9237
:1015F0005B97C418D508E608F70894966D917D911D
:101600008D919C91979709C0F10160A171A182A170
:1016100093A164A375A386A397A38C149D04AE0421
:10162000BF0460F50E944405623071058105910593
:1016300008F463C0F10100851185228533856017A8
:1016400071078207930708F058C064A375A386A3A7
:1016500097A3008D118D228D338D080D191D2A1D24
:101660003B1D008F118F228F338FC818D908EA08CD
:10167000FB088C149D04AE04BF04A0F2D10158965F
:101680000D911D912D913C915B970C0D1D1D2E1DF3
:101690003F1DF101008F118F228F338F0E947E0436
:1016A000611571058105910541F1970186010F2EA4
:1016B000F9E03695279517950795FA95D1F7F02D0E
:1016C000F1E0DF22EE24FF24CD28CE28CF2829F414
:1016D000D10113960C9380E01AC041E0400FF10154
:1016E0004383DC01CB01800F911DA11DB11D80A79B
:1016F00091A7A2A7B3A780E00AC0D10112961C92BD
:1017000081E005C086E003C085E001C080E00F9065
:101710000F900F900F90DF91CF911F910F91FF903D
:10172000EF90DF90CF90BF90AF909F908F907F9081
:101730006F905F904F903F902F9008950F931F935D
:10174000CF93DF93CDB7DEB7AC970FB6F894DEBF7B
:101750000FBECDBF8C01E091F900F091FA003097F7
:1017600069F1CE010D96978386830C97F8019383D8
:101770008283C8010E94D30681111BC08D858823F6
:1017800009F1888D84FF18C049A15AA160E070E07A
:10179000BA01552744278FA198A5A0E0B0E0482BB7
:1017A000592B6A2B7B2BF8014483558366837783FF
:1017B00009C0833029F00AC084E008C086E006C072
:1017C00084E004C0C8010E94A904F3CFAC960FB610
:1017D000F894DEBF0FBECDBFDF91CF911F910F9167
:1017E0000895A1E21A2EAA1BBB1BFD010DC0AA1F62
:1017F000BB1FEE1FFF1FA217B307E407F50720F07A
:10180000A21BB30BE40BF50B661F771F881F991FF4
:101810001A9469F760957095809590959B01AC013D
:10182000BD01CF0108950E941E0CA59F900DB49F8D
:10183000900DA49F800D911D11240895A29FB001C9
:10184000B39FC001A39F700D811D1124911DB29FF4
:0E185000700D811D1124911D0895F894FFCF95
:10185E00010101000300020001000300020001006B
:10186E00030001000100010100030002000100035A
:10187E000002000100030001000100BC02BC02BC1A
:10188E0002737461727475702E7761760073746171
:10189E0072332E776176007377696E67322E7761B9
:1018AE0076007377696E67332E776176006C61739D
:1018BE0072686974312E776176006C617372686933
:1018CE0074322E776176006C617372686974332E90
:0C18DE007761760068756D2E77617600EA
:00000001FF
